{
  "contractName": "generateNumber",
  "abi": [
    {
      "inputs": [],
      "payable": true,
      "stateMutability": "payable",
      "type": "constructor"
    },
    {
      "constant": true,
      "inputs": [],
      "name": "randomNumber",
      "outputs": [
        {
          "internalType": "uint256",
          "name": "",
          "type": "uint256"
        }
      ],
      "payable": false,
      "stateMutability": "view",
      "type": "function"
    },
    {
      "constant": false,
      "inputs": [
        {
          "internalType": "bytes32",
          "name": "_myid",
          "type": "bytes32"
        },
        {
          "internalType": "string",
          "name": "_result",
          "type": "string"
        }
      ],
      "name": "__callback",
      "outputs": [],
      "payable": false,
      "stateMutability": "nonpayable",
      "type": "function"
    },
    {
      "constant": false,
      "inputs": [
        {
          "internalType": "bytes32",
          "name": "queryId",
          "type": "bytes32"
        },
        {
          "internalType": "string",
          "name": "result",
          "type": "string"
        },
        {
          "internalType": "bytes",
          "name": "proof",
          "type": "bytes"
        }
      ],
      "name": "__callback",
      "outputs": [],
      "payable": false,
      "stateMutability": "nonpayable",
      "type": "function"
    },
    {
      "constant": false,
      "inputs": [],
      "name": "getRandomNumber",
      "outputs": [],
      "payable": true,
      "stateMutability": "payable",
      "type": "function"
    }
  ],
  "bytecode": "0x60806040526200001f600160f81b604060f81b176200002560201b60201c565b62000a46565b600073ffffffffffffffffffffffffffffffffffffffff16600160009054906101000a900473ffffffffffffffffffffffffffffffffffffffff1673ffffffffffffffffffffffffffffffffffffffff161480620000b557506000620000b3600160009054906101000a900473ffffffffffffffffffffffffffffffffffffffff166200038860201b60201c565b145b15620000cf57620000cd60006200039360201b60201c565b505b600160009054906101000a900473ffffffffffffffffffffffffffffffffffffffff1673ffffffffffffffffffffffffffffffffffffffff166338cc48316040518163ffffffff1660e01b8152600401602060405180830381600087803b1580156200013a57600080fd5b505af11580156200014f573d6000803e3d6000fd5b505050506040513d60208110156200016657600080fd5b810190808051906020019092919050505073ffffffffffffffffffffffffffffffffffffffff166000809054906101000a900473ffffffffffffffffffffffffffffffffffffffff1673ffffffffffffffffffffffffffffffffffffffff1614620002b357600160009054906101000a900473ffffffffffffffffffffffffffffffffffffffff1673ffffffffffffffffffffffffffffffffffffffff166338cc48316040518163ffffffff1660e01b8152600401602060405180830381600087803b1580156200023657600080fd5b505af11580156200024b573d6000803e3d6000fd5b505050506040513d60208110156200026257600080fd5b81019080805190602001909291905050506000806101000a81548173ffffffffffffffffffffffffffffffffffffffff021916908373ffffffffffffffffffffffffffffffffffffffff1602179055505b6000809054906101000a900473ffffffffffffffffffffffffffffffffffffffff1673ffffffffffffffffffffffffffffffffffffffff1663688dcfd7826040518263ffffffff1660e01b815260040180827effffffffffffffffffffffffffffffffffffffffffffffffffffffffffffff19167effffffffffffffffffffffffffffffffffffffffffffffffffffffffffffff19168152602001915050600060405180830381600087803b1580156200036c57600080fd5b505af115801562000381573d6000803e3d6000fd5b5050505050565b6000813b9050919050565b6000620003a5620003ac60201b60201c565b9050919050565b600080620003d4731d3b2638a7cc9f2cb3d298a3da7a90b67e5506ed6200038860201b60201c565b11156200048057731d3b2638a7cc9f2cb3d298a3da7a90b67e5506ed600160006101000a81548173ffffffffffffffffffffffffffffffffffffffff021916908373ffffffffffffffffffffffffffffffffffffffff160217905550620004766040518060400160405280600b81526020017f6574685f6d61696e6e65740000000000000000000000000000000000000000008152506200097b60201b60201c565b6001905062000978565b6000620004a773c03a2615d5efaf5f49f60b7bb6583eaec212fdf16200038860201b60201c565b1115620005535773c03a2615d5efaf5f49f60b7bb6583eaec212fdf1600160006101000a81548173ffffffffffffffffffffffffffffffffffffffff021916908373ffffffffffffffffffffffffffffffffffffffff160217905550620005496040518060400160405280600c81526020017f6574685f726f707374656e3300000000000000000000000000000000000000008152506200097b60201b60201c565b6001905062000978565b60006200057a73b7a07bcf2ba2f2703b24c0691b5278999c59ac7e6200038860201b60201c565b1115620006265773b7a07bcf2ba2f2703b24c0691b5278999c59ac7e600160006101000a81548173ffffffffffffffffffffffffffffffffffffffff021916908373ffffffffffffffffffffffffffffffffffffffff1602179055506200061c6040518060400160405280600981526020017f6574685f6b6f76616e00000000000000000000000000000000000000000000008152506200097b60201b60201c565b6001905062000978565b60006200064d73146500cfd35b22e4a392fe0adc06de1a1368ed486200038860201b60201c565b1115620006f95773146500cfd35b22e4a392fe0adc06de1a1368ed48600160006101000a81548173ffffffffffffffffffffffffffffffffffffffff021916908373ffffffffffffffffffffffffffffffffffffffff160217905550620006ef6040518060400160405280600b81526020017f6574685f72696e6b6562790000000000000000000000000000000000000000008152506200097b60201b60201c565b6001905062000978565b60006200072073a2998efd205fb9d4b4963afb70778d6354ad3a416200038860201b60201c565b1115620007cc5773a2998efd205fb9d4b4963afb70778d6354ad3a41600160006101000a81548173ffffffffffffffffffffffffffffffffffffffff021916908373ffffffffffffffffffffffffffffffffffffffff160217905550620007c26040518060400160405280600a81526020017f6574685f676f65726c69000000000000000000000000000000000000000000008152506200097b60201b60201c565b6001905062000978565b6000620007f3736f485c8bf6fc43ea212e93bbf8ce046c7f1cb4756200038860201b60201c565b11156200085957736f485c8bf6fc43ea212e93bbf8ce046c7f1cb475600160006101000a81548173ffffffffffffffffffffffffffffffffffffffff021916908373ffffffffffffffffffffffffffffffffffffffff1602179055506001905062000978565b6000620008807320e12a1f859b3feae5fb2a0a32c18f5a65555bbf6200038860201b60201c565b1115620008e6577320e12a1f859b3feae5fb2a0a32c18f5a65555bbf600160006101000a81548173ffffffffffffffffffffffffffffffffffffffff021916908373ffffffffffffffffffffffffffffffffffffffff1602179055506001905062000978565b60006200090d7351efaf4c8b3c9afbd5ab9f4bbc82784ab6ef8faa6200038860201b60201c565b111562000973577351efaf4c8b3c9afbd5ab9f4bbc82784ab6ef8faa600160006101000a81548173ffffffffffffffffffffffffffffffffffffffff021916908373ffffffffffffffffffffffffffffffffffffffff1602179055506001905062000978565b600090505b90565b80600290805190602001906200099392919062000997565b5050565b828054600181600116156101000203166002900490600052602060002090601f016020900481019282601f10620009da57805160ff191683800117855562000a0b565b8280016001018555821562000a0b579182015b8281111562000a0a578251825591602001919060010190620009ed565b5b50905062000a1a919062000a1e565b5090565b62000a4391905b8082111562000a3f57600081600090555060010162000a25565b5090565b90565b6113b88062000a566000396000f3fe60806040526004361061003f5760003560e01c806327dc297e1461004457806338bbfa5014610116578063ccbac9f51461027f578063dbdff2c1146102aa575b600080fd5b34801561005057600080fd5b506101146004803603604081101561006757600080fd5b81019080803590602001909291908035906020019064010000000081111561008e57600080fd5b8201836020820111156100a057600080fd5b803590602001918460018302840111640100000000831117156100c257600080fd5b91908080601f016020809104026020016040519081016040528093929190818152602001838380828437600081840152601f19601f8201169050808301925050505050505091929192905050506102b4565b005b34801561012257600080fd5b5061027d6004803603606081101561013957600080fd5b81019080803590602001909291908035906020019064010000000081111561016057600080fd5b82018360208201111561017257600080fd5b8035906020019184600183028401116401000000008311171561019457600080fd5b91908080601f016020809104026020016040519081016040528093929190818152602001838380828437600081840152601f19601f820116905080830192505050505050509192919290803590602001906401000000008111156101f757600080fd5b82018360208201111561020957600080fd5b8035906020019184600183028401116401000000008311171561022b57600080fd5b91908080601f016020809104026020016040519081016040528093929190818152602001838380828437600081840152601f19601f8201169050808301925050505050505091929192905050506102f7565b005b34801561028b57600080fd5b5061029461034a565b6040518082815260200191505060405180910390f35b6102b2610350565b005b6102f3828260006040519080825280601f01601f1916602001820160405280156102ed5781602001600182028038833980820191505090505b506102f7565b5050565b6102ff6103c7565b73ffffffffffffffffffffffffffffffffffffffff163373ffffffffffffffffffffffffffffffffffffffff161461033657600080fd5b61033f826106e4565b600581905550505050565b60055481565b6103c46040518060400160405280600481526020017f436f6d70000000000000000000000000000000000000000000000000000000008152506040518060400160405280600981526020017f49504653204861736800000000000000000000000000000000000000000000008152506106f8565b50565b60008073ffffffffffffffffffffffffffffffffffffffff16600160009054906101000a900473ffffffffffffffffffffffffffffffffffffffff1673ffffffffffffffffffffffffffffffffffffffff16148061044f5750600061044d600160009054906101000a900473ffffffffffffffffffffffffffffffffffffffff16610c3e565b145b156104605761045e6000610c49565b505b600160009054906101000a900473ffffffffffffffffffffffffffffffffffffffff1673ffffffffffffffffffffffffffffffffffffffff166338cc48316040518163ffffffff1660e01b8152600401602060405180830381600087803b1580156104ca57600080fd5b505af11580156104de573d6000803e3d6000fd5b505050506040513d60208110156104f457600080fd5b810190808051906020019092919050505073ffffffffffffffffffffffffffffffffffffffff166000809054906101000a900473ffffffffffffffffffffffffffffffffffffffff1673ffffffffffffffffffffffffffffffffffffffff161461063d57600160009054906101000a900473ffffffffffffffffffffffffffffffffffffffff1673ffffffffffffffffffffffffffffffffffffffff166338cc48316040518163ffffffff1660e01b8152600401602060405180830381600087803b1580156105c257600080fd5b505af11580156105d6573d6000803e3d6000fd5b505050506040513d60208110156105ec57600080fd5b81019080805190602001909291905050506000806101000a81548173ffffffffffffffffffffffffffffffffffffffff021916908373ffffffffffffffffffffffffffffffffffffffff1602179055505b6000809054906101000a900473ffffffffffffffffffffffffffffffffffffffff1673ffffffffffffffffffffffffffffffffffffffff1663c281d19e6040518163ffffffff1660e01b815260040160206040518083038186803b1580156106a457600080fd5b505afa1580156106b8573d6000803e3d6000fd5b505050506040513d60208110156106ce57600080fd5b8101908080519060200190929190505050905090565b60006106f1826000610c5a565b9050919050565b60008073ffffffffffffffffffffffffffffffffffffffff16600160009054906101000a900473ffffffffffffffffffffffffffffffffffffffff1673ffffffffffffffffffffffffffffffffffffffff1614806107805750600061077e600160009054906101000a900473ffffffffffffffffffffffffffffffffffffffff16610c3e565b145b156107915761078f6000610c49565b505b600160009054906101000a900473ffffffffffffffffffffffffffffffffffffffff1673ffffffffffffffffffffffffffffffffffffffff166338cc48316040518163ffffffff1660e01b8152600401602060405180830381600087803b1580156107fb57600080fd5b505af115801561080f573d6000803e3d6000fd5b505050506040513d602081101561082557600080fd5b810190808051906020019092919050505073ffffffffffffffffffffffffffffffffffffffff166000809054906101000a900473ffffffffffffffffffffffffffffffffffffffff1673ffffffffffffffffffffffffffffffffffffffff161461096e57600160009054906101000a900473ffffffffffffffffffffffffffffffffffffffff1673ffffffffffffffffffffffffffffffffffffffff166338cc48316040518163ffffffff1660e01b8152600401602060405180830381600087803b1580156108f357600080fd5b505af1158015610907573d6000803e3d6000fd5b505050506040513d602081101561091d57600080fd5b81019080805190602001909291905050506000806101000a81548173ffffffffffffffffffffffffffffffffffffffff021916908373ffffffffffffffffffffffffffffffffffffffff1602179055505b60008060009054906101000a900473ffffffffffffffffffffffffffffffffffffffff1673ffffffffffffffffffffffffffffffffffffffff1663524f3889856040518263ffffffff1660e01b81526004018080602001828103825283818151815260200191508051906020019080838360005b838110156109fd5780820151818401526020810190506109e2565b50505050905090810190601f168015610a2a5780820380516001836020036101000a031916815260200191505b5092505050602060405180830381600087803b158015610a4957600080fd5b505af1158015610a5d573d6000803e3d6000fd5b505050506040513d6020811015610a7357600080fd5b8101908080519060200190929190505050905062030d403a02670de0b6b3a764000001811115610aa9576000801b915050610c38565b6000809054906101000a900473ffffffffffffffffffffffffffffffffffffffff1673ffffffffffffffffffffffffffffffffffffffff1663adf59f9982600087876040518563ffffffff1660e01b8152600401808481526020018060200180602001838103835285818151815260200191508051906020019080838360005b83811015610b44578082015181840152602081019050610b29565b50505050905090810190601f168015610b715780820380516001836020036101000a031916815260200191505b50838103825284818151815260200191508051906020019080838360005b83811015610baa578082015181840152602081019050610b8f565b50505050905090810190601f168015610bd75780820380516001836020036101000a031916815260200191505b50955050505050506020604051808303818588803b158015610bf857600080fd5b505af1158015610c0c573d6000803e3d6000fd5b50505050506040513d6020811015610c2357600080fd5b81019080805190602001909291905050509150505b92915050565b6000813b9050919050565b6000610c53610d6d565b9050919050565b600060608390506000809050600080905060008090505b8351811015610d4e576030848281518110610c8857fe5b602001015160f81c60f81b60f81c60ff1610158015610cc457506039848281518110610cb057fe5b602001015160f81c60f81b60f81c60ff1611155b15610d16578115610ce7576000861415610cdd57610d4e565b8580600190039650505b600a830292506030848281518110610cfb57fe5b602001015160f81c60f81b60f81c60ff160383019250610d41565b602e848281518110610d2457fe5b602001015160f81c60f81b60f81c60ff161415610d4057600191505b5b8080600101915050610c71565b506000851115610d615784600a0a820291505b81935050505092915050565b600080610d8d731d3b2638a7cc9f2cb3d298a3da7a90b67e5506ed610c3e565b1115610e2f57731d3b2638a7cc9f2cb3d298a3da7a90b67e5506ed600160006101000a81548173ffffffffffffffffffffffffffffffffffffffff021916908373ffffffffffffffffffffffffffffffffffffffff160217905550610e266040518060400160405280600b81526020017f6574685f6d61696e6e65740000000000000000000000000000000000000000008152506112c4565b600190506112c1565b6000610e4e73c03a2615d5efaf5f49f60b7bb6583eaec212fdf1610c3e565b1115610ef05773c03a2615d5efaf5f49f60b7bb6583eaec212fdf1600160006101000a81548173ffffffffffffffffffffffffffffffffffffffff021916908373ffffffffffffffffffffffffffffffffffffffff160217905550610ee76040518060400160405280600c81526020017f6574685f726f707374656e3300000000000000000000000000000000000000008152506112c4565b600190506112c1565b6000610f0f73b7a07bcf2ba2f2703b24c0691b5278999c59ac7e610c3e565b1115610fb15773b7a07bcf2ba2f2703b24c0691b5278999c59ac7e600160006101000a81548173ffffffffffffffffffffffffffffffffffffffff021916908373ffffffffffffffffffffffffffffffffffffffff160217905550610fa86040518060400160405280600981526020017f6574685f6b6f76616e00000000000000000000000000000000000000000000008152506112c4565b600190506112c1565b6000610fd073146500cfd35b22e4a392fe0adc06de1a1368ed48610c3e565b11156110725773146500cfd35b22e4a392fe0adc06de1a1368ed48600160006101000a81548173ffffffffffffffffffffffffffffffffffffffff021916908373ffffffffffffffffffffffffffffffffffffffff1602179055506110696040518060400160405280600b81526020017f6574685f72696e6b6562790000000000000000000000000000000000000000008152506112c4565b600190506112c1565b600061109173a2998efd205fb9d4b4963afb70778d6354ad3a41610c3e565b11156111335773a2998efd205fb9d4b4963afb70778d6354ad3a41600160006101000a81548173ffffffffffffffffffffffffffffffffffffffff021916908373ffffffffffffffffffffffffffffffffffffffff16021790555061112a6040518060400160405280600a81526020017f6574685f676f65726c69000000000000000000000000000000000000000000008152506112c4565b600190506112c1565b6000611152736f485c8bf6fc43ea212e93bbf8ce046c7f1cb475610c3e565b11156111b657736f485c8bf6fc43ea212e93bbf8ce046c7f1cb475600160006101000a81548173ffffffffffffffffffffffffffffffffffffffff021916908373ffffffffffffffffffffffffffffffffffffffff160217905550600190506112c1565b60006111d57320e12a1f859b3feae5fb2a0a32c18f5a65555bbf610c3e565b1115611239577320e12a1f859b3feae5fb2a0a32c18f5a65555bbf600160006101000a81548173ffffffffffffffffffffffffffffffffffffffff021916908373ffffffffffffffffffffffffffffffffffffffff160217905550600190506112c1565b60006112587351efaf4c8b3c9afbd5ab9f4bbc82784ab6ef8faa610c3e565b11156112bc577351efaf4c8b3c9afbd5ab9f4bbc82784ab6ef8faa600160006101000a81548173ffffffffffffffffffffffffffffffffffffffff021916908373ffffffffffffffffffffffffffffffffffffffff160217905550600190506112c1565b600090505b90565b80600290805190602001906112da9291906112de565b5050565b828054600181600116156101000203166002900490600052602060002090601f016020900481019282601f1061131f57805160ff191683800117855561134d565b8280016001018555821561134d579182015b8281111561134c578251825591602001919060010190611331565b5b50905061135a919061135e565b5090565b61138091905b8082111561137c576000816000905550600101611364565b5090565b9056fea265627a7a7231582077d3c91879954b32e8ae2507b2a860d8ff38cd2db0f495a6e0565ff52d5c378c64736f6c63430005100032",
  "source": "pragma solidity >=0.4.22 <0.9.0;\r\n\r\nimport \"ethereum-api/oraclizeAPI_0.5.sol\";\r\n\r\ncontract generateNumber is usingOraclize{\r\n    uint public randomNumber;\r\n\r\n    constructor() payable public{\r\n        oraclize_setProof(proofType_Android | proofStorage_IPFS);\r\n    }\r\n\r\n    function __callback(bytes32 queryId, string memory result, bytes memory proof) public {\r\n        require(msg.sender == oraclize_cbAddress());\r\n        randomNumber = parseInt(result);\r\n    }\r\n\r\n    function getRandomNumber() public payable{\r\n        oraclize_query(\"Comp\", \"IPFS Hash\");\r\n    }\r\n}",
  "sourcePath": "C:/Users/Lenovo/projects/oraclize/randomness/contracts/generateRandomNumber.sol",
  "compiler": {
    "name": "solc",
    "version": "0.5.16+commit.9c3226ce.Emscripten.clang"
  },
  "schemaVersion": "3.4.1",
  "updatedAt": "2021-07-24T16:42:01.019Z",
  "devdoc": {
    "methods": {
      "__callback(bytes32,string)": {
        "details": "The following `__callback` functions are just placeholders ideally     meant to be defined in child contract when proofs are used.     The function bodies simply silence compiler warnings."
      }
    }
  },
  "userdoc": {
    "methods": {}
  }
}